:100000000C945D000C9485000C9485000C94850084
:100010000C9485000C9485000C9485000C9485004C
:100020000C9485000C9485000C9485000C9485003C
:100030000C9485000C9485000C9485000C9485002C
:100040000C94AC020C9485000C947A020C9454022B
:100050000C9485000C9485000C9485000C9485000C
:100060000C9485000C9485000000000024002700FB
:100070002A0000000000250028002B0004040404CE
:100080000404040402020202020203030303030342
:10009000010204081020408001020408102001021F
:1000A00004081020000000080002010000030407FB
:1000B0000000000000000000AA0311241FBECFEFC3
:1000C000D8E0DEBFCDBF11E0A0E0B1E0EEEBF7E09D
:1000D00002C005900D92A433B107D9F721E0A4E343
:1000E000B1E001C01D92AA3DB207E1F710E0CDE5F5
:1000F000D0E004C02197FE010E94D703CC35D10780
:10010000C9F70E94F6020C94DD030C940000E1EBA9
:10011000F0E02491EDE9F0E09491E9E8F0E0E49179
:10012000EE23C9F0222339F0233001F1A8F4213065
:1001300019F1223029F1F0E0EE0FFF1FEE58FF4FCA
:10014000A591B4912FB7F894EC91811126C09095A8
:100150009E239C932FBF08952730A9F02830C9F023
:10016000243049F7209180002F7D03C0209180002A
:100170002F7720938000DFCF24B52F7724BDDBCFEE
:1001800024B52F7DFBCF2091B0002F772093B000B6
:10019000D2CF2091B0002F7DF9CF9E2BDACFAF9236
:1001A000BF92CF92DF92EF92FF920F931F93CF9364
:1001B000DF936C017B018B01040F151FEB015E01C6
:1001C000AE18BF08C017D10759F06991D601ED915B
:1001D000FC910190F081E02DC6010995892B79F7FA
:1001E000C501DF91CF911F910F91FF90EF90DF90AC
:1001F000CF90BF90AF900895FC01538D448D252F73
:1002000030E0842F90E0821B930B541710F0CF96B0
:10021000089501970895FC01918D828D981761F0E2
:10022000A28DAE0FBF2FB11D5D968C91928D9F5FF9
:100230009F73928F90E008958FEF9FEF0895FC01D8
:10024000918D828D981731F0828DE80FF11D858D8B
:1002500090E008958FEF9FEF0895FC01918D228D1E
:10026000892F90E0805C9F4F821B91098F739927A3
:1002700008958DE391E00E942D0121E0892B09F47E
:1002800020E0822F089580E090E0892B29F00E94E1
:10029000390181110C9400000895FC01A48DA80F70
:1002A000B92FB11DA35ABF4F2C91848D90E00196B8
:1002B0008F739927848FA689B7892C93A089B189D8
:1002C0008C91837080648C93938D848D981306C079
:1002D0000288F389E02D80818F7D80830895EF92DD
:1002E000FF920F931F93CF93DF93EC0181E0888FF0
:1002F0009B8D8C8D98131AC0E889F989808185FFC0
:1003000015C09FB7F894EE89FF896083E889F98961
:1003100080818370806480839FBF81E090E0DF9163
:10032000CF911F910F91FF90EF900895F62E0B8DB6
:1003300010E00F5F1F4F0F731127E02E8C8D8E1171
:100340000CC00FB607FCFACFE889F989808185FFD8
:10035000F5CFCE010E944D01F1CFEB8DEC0FFD2FBB
:10036000F11DE35AFF4FF0829FB7F8940B8FEA8993
:10037000FB8980818062CFCFCF93DF93EC01888DA2
:100380008823B9F0AA89BB89E889F9898C9185FD10
:1003900003C0808186FD0DC00FB607FCF7CF8C919E
:1003A00085FFF2CF808185FFEDCFCE010E944D0108
:1003B000E9CFDF91CF9108953FB7F894809139014B
:1003C00090913A01A0913B01B0913C0126B5A89BC8
:1003D00005C02F3F19F00196A11DB11D3FBFBA2FD7
:1003E000A92F982F8827BC01CD01620F711D811D97
:1003F000911D42E0660F771F881F991F4A95D1F71C
:1004000008958F929F92AF92BF92CF92DF92EF9218
:10041000FF920E94DC014B015C0184EFC82EDD24B9
:10042000D394E12CF12C0E94DC01681979098A0926
:100430009B09683E734081059105A8F321E0C21A2B
:10044000D108E108F10888EE880E83E0981EA11C0F
:10045000B11CC114D104E104F10429F7FF90EF901D
:10046000DF90CF90BF90AF909F908F900895CF93E3
:10047000DF93FC0101900020E9F73197AF01481BA1
:10048000590BBC018DE391E00E94CF00EC0142E0EA
:1004900050E062E171E08DE391E00E94CF008C0FAB
:1004A0009D1FDF91CF9108951F920F920FB60F926B
:1004B00011242F933F934F935F936F937F938F9369
:1004C0009F93AF93BF93EF93FF938DE391E00E94CF
:1004D0004D01FF91EF91BF91AF919F918F917F91CE
:1004E0006F915F914F913F912F910F900FBE0F90A1
:1004F0001F9018951F920F920FB60F9211242F93F1
:100500008F939F93EF93FF93E0914D01F0914E01F4
:100510008081E0915301F091540182FD1BC09081D4
:10052000809156018F5F8F7320915701821741F0A0
:10053000E0915601F0E0E35CFE4F958F8093560109
:10054000FF91EF919F918F912F910F900FBE0F9080
:100550001F9018958081F4CF1F920F920FB60F92C3
:1005600011242F933F938F939F93AF93BF938091C9
:10057000350190913601A0913701B0913801309149
:10058000340123E0230F2D3758F50196A11DB11D2D
:10059000209334018093350190933601A093370165
:1005A000B09338018091390190913A01A0913B01BB
:1005B000B0913C010196A11DB11D8093390190932A
:1005C0003A01A0933B01B0933C01BF91AF919F9141
:1005D0008F913F912F910F900FBE0F901F90189504
:1005E00026E8230F0296A11DB11DD2CF789484B5C1
:1005F000826084BD84B5816084BD85B5826085BD1F
:1006000085B5816085BD80916E00816080936E00AC
:10061000109281008091810082608093810080919E
:10062000810081608093810080918000816080934F
:1006300080008091B10084608093B1008091B0000F
:1006400081608093B00080917A00846080937A000A
:1006500080917A00826080937A0080917A00816034
:1006600080937A0080917A00806880937A0010925B
:10067000C100E0914D01F0914E0182E08083E09154
:100680004901F0914A011082E0914B01F0914C0137
:100690008FEC808310925501E0915101F09152014D
:1006A00086E08083E0914F01F0915001808180616C
:1006B0008083E0914F01F0915001808188608083B8
:1006C000E0914F01F0915001808180688083E0913A
:1006D0004F01F091500180818F7D8083EDE9F0E042
:1006E0002491E9E8F0E08491882399F090E0880F64
:1006F000991FFC01E859FF4FA591B491FC01EE58F8
:10070000FF4F859194918FB7F894EC91E22BEC9385
:100710008FBF85E191E00E943702C0E0D0E081E028
:100720000E94870080E291E00E9437020E9401024D
:1007300080E00E9487008AE291E00E9437020E94D6
:100740000102209761F30E943901882341F30E943E
:100750000000E5CFEDE3F1E01382128288EE93E032
:10076000A0E0B0E084839583A683B78384E091E022
:100770009183808385EC90E09587848784EC90E07A
:100780009787868780EC90E0918B808B81EC90E05E
:10079000938B828B82EC90E0958B848B86EC90E03F
:1007A000978B868B118E128E138E148E0895EE0FFA
:0E07B000FF1F0590F491E02D0994F894FFCFFF
:1007BE00000000006F01CF00FC00BC012D010B01F9
:1007CE001F010D0A005354415254204E414E4F000A
:1007DE0048494748204E414E4F004C4F57204E41FE
:0407EE004E4F00006A
:00000001FF
