:10000000F6C0000022C1000020C100001EC1000097
:100010001CC100001AC1000018C1000016C1000078
:1000200014C1000012C1000010C100000EC1000088
:100030000CC100000AC1000008C1000006C1000098
:1000400004C1000002C1000000C10000FEC00000A9
:10005000FCC00000FAC00000F8C00000D5C20000DB
:10006000F4C00000F2C00000F0C00000EEC00000CC
:10007000ECC00000EAC00000E8C00000E6C00000DC
:10008000E4C00000E2C00000E0C00000DEC00000EC
:10009000DCC00000DAC00000D8C00000D6C00000FC
:1000A000D4C00000D2C00000D0C00000CEC000000C
:1000B000CCC00000CAC00000C8C00000C6C000001C
:1000C000C4C00000C2C00000C0C00000BEC000002C
:1000D000BCC00000BAC00000B8C00000B6C000003C
:1000E000B4C0000000002100240027002A002D00D9
:1000F0003000330001010000040107010A01000083
:100100002200250028002B002E00310034000201BF
:100110000000050108010B01050505050705080894
:100120000808020202020A0A080804040404010181
:100130000101010101010303030303030303040796
:1001400007070C0C0C0C0C0C0C0C0202020206062D
:100150000606060606060B0B0B0B0B0B0B0B010220
:1001600010202008081020401020408002010201C9
:100170000804020101020408102040808040201081
:1001800008040201800402018040201008040201DA
:100190000804020101020408102040800102040842
:1001A0001020408000000A0B02090C0D0E08070306
:1001B000040100000000000000000000000000003A
:1001C000000000000000000000000000000000002F
:1001D00012111000000000000000000000000000EC
:1001E000000000000000000000006604C2041124AA
:1001F0001FBECFEFD1E2DEBFCDBF00E00CBF12E0EB
:10020000A0E0B2E0ECE1FCE000E00BBF02C0079030
:100210000D92A031B107D9F722E0A0E1B2E001C010
:100220001D92A333B207E1F710E0C6EFD0E000E083
:1002300005C021970109802FFE01B2D3C53FD10728
:1002400080E00807B1F72AD2D8C4DACE282F30E0F0
:10025000F901EC55FE4F9491F901E25AFE4F449199
:10026000285E3E4FF9012491222309F432C09923DC
:1002700009F191509231F0F4E92FF0E08827ED5B1D
:10028000FE4F8F4F8DC37201760155016A016E01D9
:100290005A0179017F01830189018D019101970143
:1002A0009B015A019F01A501A901809180008F77D0
:1002B00080938000E22FF0E0EE0FFF1FE250FF4F2F
:1002C000A591B4918FB7F894EC9140954E234C933F
:1002D0008FBF0895809180008F7DEACF809180004C
:1002E000877FE6CF84B58F7784BDE4CF84B58F7DDB
:1002F000FBCF8091B0008F778093B000DBCF8091EF
:10030000B0008F7DF9CF809190008F77809390001F
:10031000D1CF809190008F7DF9CF80919000877F21
:10032000F5CF8091A0008F778093A000C3CF8091FC
:10033000A0008F7DF9CF8091A000877FF5CF8091BD
:1003400020018F7780932001B5CF809120018F7D90
:10035000F9CF80912001877FF5CFCF93DF9390E095
:10036000FC01E25AFE4F2491885E9E4FFC0184916D
:100370008823D1F090E0880F991FFC01EC51FF4FCA
:10038000A591B491FC01E250FF4FC591D491611148
:100390000EC09FB7F8948C91E22FE0958E238C933A
:1003A0002881E223E8839FBFDF91CF9108958FB723
:1003B000F894EC91E22BEC938FBFF6CF3FB7F89413
:1003C0008091150290911602A0911702B091180227
:1003D00026B5A89B05C02F3F19F00196A11DB11DA0
:1003E0003FBFBA2FA92F982F8827BC01CD01620FDC
:1003F000711D811D911D42E0660F771F881F991F97
:100400004A95D1F70895CF92DF92EF92FF920F9322
:100410001F93CF93DF9300D000D000D0CDB7DEB7CD
:10042000C0902802D0902902E0902A02F0902B027E
:10043000C5DF6C157D058E059F0548F4BFDF609311
:1004400028027093290280932A0290932B02B6DF30
:10045000009128021091290220912A0230912B024A
:10046000601B710B820B930B6C32714081059105FF
:10047000B8F2F89480911D0290911E029A838983AC
:10048000E0912202F0912302DF0111968081898799
:1004900090911902E0912C02F0912D0280912E0290
:1004A000992309F448C09081982B98879081809572
:1004B00089238F838F818C8388E08B8358856F811C
:1004C00049853B812C8189819A81508347FD252F65
:1004D0003A952083262F39F0441F00C00000608326
:1004E000000000C0F2CF38E04D916083000001971A
:1004F00061F7F0932D02E0932C0249873B832C8314
:100500009A83898378945ADF609328027093290232
:1005100080932A0290932B0229960FB6F894DEBF9F
:100520000FBECDBFDF91CF911F910F91FF90EF9044
:10053000DF90CF9008959081982B98879081809537
:1005400089238F838F818E8388E08D8358856F8187
:1005500049853D812E8189819A81508347FD252FD0
:1005600000C000C0208300C000C000C000C000C0A8
:1005700060830000262F3A9541F0441F000000C020
:1005800000C000C000C000C0E8CF38E04D9100C0FE
:10059000608300C0019709F7F0932D02E0932C02CD
:1005A00049873D832E83ACCF8F929F92AF92BF92AB
:1005B000CF92DF92EF92FF924B015C01FFDE6B0165
:1005C0007C01FCDE6C197D098E099F09683E734031
:1005D00081059105B0F321E0821A9108A108B108C4
:1005E00088EEC80E83E0D81EE11CF11C8114910432
:1005F000A104B10431F7FF90EF90DF90CF90BF904E
:10060000AF909F908F9008951F920F920FB60F9208
:1006100011242F933F938F939F93AF93BF93809118
:10062000110290911202A0911302B0911402309124
:10063000100223E0230F2D3758F50196A11DB11D9F
:10064000209310028093110290931202A093130240
:10065000B09314028091150290911602A091170296
:10066000B09118020196A11DB11D809315029093BF
:100670001602A0931702B0931802BF91AF919F91F9
:100680008F913F912F910F900FBE0F901F90189553
:1006900026E8230F0296A11DB11DD2CF789484B510
:1006A000826084BD84B5816084BD85B5826085BD6E
:1006B00085B5816085BD80916E00816080936E00FC
:1006C00010928100809181008260809381008091EE
:1006D000810081608093810080918000816080939F
:1006E00080008091B10084608093B1008091B0005F
:1006F00081608093B000809191008260809391002E
:100700008091910081608093910080919000816040
:10071000809390008091A10082608093A1008091DD
:10072000A10081608093A1008091A00081608093EE
:10073000A00080912101826080932101809121019C
:10074000816080932101809120018160809320014C
:1007500080917A00846080937A0080917A00826030
:1007600080937A0080917A00816080937A008091F2
:100770007A00806880937A001092C10080911F02F5
:100780009091200297FD05C061E0E7DD80911F0296
:100790005DDD81E080931A02809122029091230214
:1007A000892B09F030DEFFE09F2EA0E0EA2EA0E0CA
:1007B000FA2E06E012E0D0E0C0E0B12CA12C6E01D0
:1007C00081E0C822DD24F80180819181A816B90654
:1007D0000CF069C0E6E0F2E050E040E030E020E0FC
:1007E0004C175D0739F061917191260F371F4F5FEC
:1007F0005F4FF6CFC114D10409F044C02A0D3B1D50
:1008000080911B0290911C022817390758F580919E
:1008100021029FE0882319F0899DC0011124E091F5
:100820002702409122025091230280912402E81372
:100830002FC0B901660F771F260F371F240F351FF2
:10084000E0912402E20FF32FF11D9083E091250245
:10085000E20FF32FF11D908380912602280F311DA6
:10086000F90190838091220290912302892B09F053
:10087000CADD6CE370E080E090E096DEFFEFAF1A37
:10088000BF0AA1CF01978A199B09280F391FB8CF3A
:10089000220F331F220F331F240F351FE20FF32FB8
:1008A000F11D1082CDCF21960E5F1F4FC530D105AF
:1008B00009F083CF64EF71E080E090E075DEE11431
:1008C000F10409F476CF0E94000073CF10921A024F
:1008D00010922102109228021092290210922A02EC
:1008E00010922B0281E080932702809324021092C1
:1008F000250292E090932602809319028EEA90E0FE
:1009000090931E0280931D0253D0909323028093F4
:100910002202009771F12EEAFC0111922A95E9F763
:100920008AE390E090931C0280931B028BE290E09C
:100930009093200280931F0280911A02882329F04D
:1009400061E08BE20ADD8BE281DCE3E4F1E0E4913B
:10095000F0E0EE0FFF1FE250FF4F859194919093CE
:100960002D0280932C02E9E8F1E0E491E0932E025D
:10097000089510921E0210921D0210921C021092F5
:100980001B02D4CF8091220290912302ADD080919E
:100990001F029091200297FD02C060E0DECC089516
:1009A000EE0FFF1F881F8BBF0790F691E02D199463
:1009B0000F931F93CF93DF938230910510F482E061
:1009C00090E0E0913102F091320230E020E0B0E0BE
:1009D000A0E0309799F42115310509F44AC0281B8D
:1009E000390B24303105D8F58A819B816115710559
:1009F00089F1FB0193838283FE0111C04081518103
:100A00000281138148175907E0F04817590799F4F4
:100A1000109761F012960C93129713961C933296CE
:100A2000CF01DF91CF911F910F9108950093310273
:100A300010933202F4CF2115310551F042175307BC
:100A400038F0A901DB019A01BD01DF01F801C1CF36
:100A5000EF01F9CF9093320280933102CDCFFE01A6
:100A6000E20FF31F81939193225031093983288338
:100A7000D7CF20912F0230913002232B41F42091C7
:100A80000202309103023093300220932F02209112
:100A90000002309101022115310541F42DB73EB716
:100AA0004091040250910502241B350BE0912F0266
:100AB000F0913002E217F307A0F42E1B3F0B28172A
:100AC000390778F0AC014E5F5F4F2417350748F0C7
:100AD0004E0F5F1F5093300240932F0281939193EA
:100AE0009FCFF0E0E0E09CCFCF93DF930097E9F059
:100AF000FC01329713821282A0913102B09132022E
:100B0000ED0130E020E01097A1F420813181820FC7
:100B1000931F20912F02309130022817390709F0D6
:100B200061C0F0933002E0932F02DF91CF910895DE
:100B3000EA01CE17DF07E8F54A815B819E01411586
:100B40005105B1F7E901FB83EA8349915991C40F3B
:100B5000D51FEC17FD0761F4808191810296840F07
:100B6000951FE90199838883828193819B838A837E
:100B7000F0E0E0E012968D919C9113970097B9F503
:100B80002D913C911197CD010296820F931F2091D8
:100B90002F02309130022817390739F6309751F576
:100BA0001092320210923102B0933002A0932F02C1
:100BB000BCCFD383C28340815181840F951FC81756
:100BC000D90761F44E5F5F4F88819981480F591FA3
:100BD000518340838A819B819383828321153105D0
:100BE00009F0B0CFF0933202E09331029ECFFD01C5
:100BF000DC01C0CF13821282D7CF10E0C6EFD0E065
:100C000000E005C0802FFE01CBDE2196011DC73F0D
:0C0C1000D10780E00807B1F7F894FFCF8F
:100C1C000000330280000A000D000D000D000900D9
:00000001FF
